{"abi":[{"type":"constructor","inputs":[],"stateMutability":"nonpayable"},{"type":"function","name":"VERSION","inputs":[],"outputs":[{"name":"","type":"string","internalType":"string"}],"stateMutability":"view"},{"type":"function","name":"agentExists","inputs":[{"name":"agentId","type":"uint256","internalType":"uint256"}],"outputs":[{"name":"exists","type":"bool","internalType":"bool"}],"stateMutability":"view"},{"type":"function","name":"getAgent","inputs":[{"name":"agentId","type":"uint256","internalType":"uint256"}],"outputs":[{"name":"agentInfo","type":"tuple","internalType":"struct IIdentityRegistry.AgentInfo","components":[{"name":"agentId","type":"uint256","internalType":"uint256"},{"name":"agentDomain","type":"string","internalType":"string"},{"name":"agentAddress","type":"address","internalType":"address"}]}],"stateMutability":"view"},{"type":"function","name":"getAgentCount","inputs":[],"outputs":[{"name":"count","type":"uint256","internalType":"uint256"}],"stateMutability":"view"},{"type":"function","name":"newAgent","inputs":[{"name":"agentDomain","type":"string","internalType":"string"},{"name":"agentAddress","type":"address","internalType":"address"}],"outputs":[{"name":"agentId","type":"uint256","internalType":"uint256"}],"stateMutability":"nonpayable"},{"type":"function","name":"resolveByAddress","inputs":[{"name":"agentAddress","type":"address","internalType":"address"}],"outputs":[{"name":"agentInfo","type":"tuple","internalType":"struct IIdentityRegistry.AgentInfo","components":[{"name":"agentId","type":"uint256","internalType":"uint256"},{"name":"agentDomain","type":"string","internalType":"string"},{"name":"agentAddress","type":"address","internalType":"address"}]}],"stateMutability":"view"},{"type":"function","name":"resolveByDomain","inputs":[{"name":"agentDomain","type":"string","internalType":"string"}],"outputs":[{"name":"agentInfo","type":"tuple","internalType":"struct IIdentityRegistry.AgentInfo","components":[{"name":"agentId","type":"uint256","internalType":"uint256"},{"name":"agentDomain","type":"string","internalType":"string"},{"name":"agentAddress","type":"address","internalType":"address"}]}],"stateMutability":"view"},{"type":"function","name":"updateAgent","inputs":[{"name":"agentId","type":"uint256","internalType":"uint256"},{"name":"newAgentDomain","type":"string","internalType":"string"},{"name":"newAgentAddress","type":"address","internalType":"address"}],"outputs":[{"name":"success","type":"bool","internalType":"bool"}],"stateMutability":"nonpayable"},{"type":"event","name":"AgentRegistered","inputs":[{"name":"agentId","type":"uint256","indexed":true,"internalType":"uint256"},{"name":"agentDomain","type":"string","indexed":false,"internalType":"string"},{"name":"agentAddress","type":"address","indexed":false,"internalType":"address"}],"anonymous":false},{"type":"event","name":"AgentUpdated","inputs":[{"name":"agentId","type":"uint256","indexed":true,"internalType":"uint256"},{"name":"agentDomain","type":"string","indexed":false,"internalType":"string"},{"name":"agentAddress","type":"address","indexed":false,"internalType":"address"}],"anonymous":false},{"type":"error","name":"AddressAlreadyRegistered","inputs":[]},{"type":"error","name":"AgentNotFound","inputs":[]},{"type":"error","name":"DomainAlreadyRegistered","inputs":[]},{"type":"error","name":"InvalidAddress","inputs":[]},{"type":"error","name":"InvalidDomain","inputs":[]},{"type":"error","name":"UnauthorizedRegistration","inputs":[]},{"type":"error","name":"UnauthorizedUpdate","inputs":[]}],"bytecode":{"object":"0x608060405234801561000f575f80fd5b5060015f556111aa806100215f395ff3fe608060405234801561000f575f80fd5b5060043610610085575f3560e01c806378ddad121161005857806378ddad121461010957806391cab63e1461011c578063de99f15714610124578063ffa1ad7414610145575f80fd5b80630c638107146100895780632de5aaf7146100b25780633bfbbad7146100c55780634750d0fa146100e8575b5f80fd5b61009c610097366004610bf6565b610176565b6040516100a99190610c63565b60405180910390f35b61009c6100c0366004610ca9565b610283565b6100d86100d3366004610d05565b610379565b60405190151581526020016100a9565b6100fb6100f6366004610d5f565b61067a565b6040519081526020016100a9565b61009c610117366004610daf565b6108d9565b6100fb610a32565b6100d8610132366004610ca9565b5f90815260016020526040902054151590565b610169604051806040016040528060058152602001640312e302e360dc1b81525081565b6040516100a99190610dee565b61017e610bb8565b6001600160a01b0382165f90815260036020526040812054908190036101b75760405163e93ba22360e01b815260040160405180910390fd5b5f81815260016020818152604092839020835160608101909452805484529182018054918401916101e790610e00565b80601f016020809104026020016040519081016040528092919081815260200182805461021390610e00565b801561025e5780601f106102355761010080835404028352916020019161025e565b820191905f5260205f20905b81548152906001019060200180831161024157829003601f168201915b5050509183525050600291909101546001600160a01b03166020909101529392505050565b61028b610bb8565b5f82815260016020818152604092839020835160608101909452805484529182018054918401916102bb90610e00565b80601f01602080910402602001604051908101604052809291908181526020018280546102e790610e00565b80156103325780601f1061030957610100808354040283529160200191610332565b820191905f5260205f20905b81548152906001019060200180831161031557829003601f168201915b5050509183525050600291909101546001600160a01b031660209091015280519091505f036103745760405163e93ba22360e01b815260040160405180910390fd5b919050565b5f848152600160205260408120805482036103a75760405163e93ba22360e01b815260040160405180910390fd5b60028101546001600160a01b031633146103d457604051634f1f214760e01b815260040160405180910390fd5b83158015906001600160a01b03851615159061046b575f61042988888080601f0160208091040260200160405190810160405280939291908181526020018383808284375f92019190915250610a4692505050565b905060028160405161043b9190610e38565b9081526020016040518091039020545f1461046957604051637b857a6b60e01b815260040160405180910390fd5b505b80156104a7576001600160a01b0385165f90815260036020526040902054156104a7576040516316a163b960e11b815260040160405180910390fd5b81156105d9575f6105418460010180546104c090610e00565b80601f01602080910402602001604051908101604052809291908181526020018280546104ec90610e00565b80156105375780601f1061050e57610100808354040283529160200191610537565b820191905f5260205f20905b81548152906001019060200180831161051a57829003601f168201915b5050505050610a46565b90506002816040516105539190610e38565b90815260200160405180910390205f90555f6105a389898080601f0160208091040260200160405190810160405280939291908181526020018383808284375f92019190915250610a4692505050565b9050600185016105b4898b83610eb5565b50896002826040516105c69190610e38565b9081526040519081900360200190205550505b801561061e576002830180546001600160a01b039081165f9081526003602052604080822082905583546001600160a01b031916928916928317909355908152208890555b600283015460405189917f1b37db56c92268433e33fda6783791cb9e5f8ffababd3952ab40716443f1bf89916106649160018801916001600160a01b0390911690610f71565b60405180910390a2506001979650505050505050565b5f336001600160a01b038316146106a4576040516313444ccd60e11b815260040160405180910390fd5b5f8390036106c5576040516375893cc160e11b815260040160405180910390fd5b6001600160a01b0382166106ec5760405163e6c4247b60e01b815260040160405180910390fd5b5f61072b85858080601f0160208091040260200160405190810160405280939291908181526020018383808284375f92019190915250610a4692505050565b905060028160405161073d9190610e38565b9081526020016040518091039020545f1461076b57604051637b857a6b60e01b815260040160405180910390fd5b6001600160a01b0383165f90815260036020526040902054156107a1576040516316a163b960e11b815260040160405180910390fd5b5f805490806107af8361101a565b919050559150604051806060016040528083815260200186868080601f0160208091040260200160405190810160405280939291908181526020018383808284375f9201829052509385525050506001600160a01b038616602092830152848152600180835260409091208351815591830151908201906108309082611032565b50604091820151600291820180546001600160a01b0319166001600160a01b039092169190911790559051839190610869908490610e38565b9081526040805160209281900383018120939093556001600160a01b0386165f9081526003909252902083905582907faef1fcdf962a03943b677ae3b92ef1b34c972aeef794ed6e9ba5f599b461883b906108c9908890889088906110ee565b60405180910390a2509392505050565b6108e1610bb8565b5f61092084848080601f0160208091040260200160405190810160405280939291908181526020018383808284375f92019190915250610a4692505050565b90505f6002826040516109339190610e38565b9081526020016040518091039020549050805f036109645760405163e93ba22360e01b815260040160405180910390fd5b5f818152600160208181526040928390208351606081019094528054845291820180549184019161099490610e00565b80601f01602080910402602001604051908101604052809291908181526020018280546109c090610e00565b8015610a0b5780601f106109e257610100808354040283529160200191610a0b565b820191905f5260205f20905b8154815290600101906020018083116109ee57829003601f168201915b5050509183525050600291909101546001600160a01b031660209091015295945050505050565b5f60015f54610a41919061112e565b905090565b60605f8290505f815167ffffffffffffffff811115610a6757610a67610e53565b6040519080825280601f01601f191660200182016040528015610a91576020820181803683370190505b5090505f5b8251811015610bb057604160f81b838281518110610ab657610ab6611147565b01602001516001600160f81b03191610801590610af75750605a60f81b838281518110610ae557610ae5611147565b01602001516001600160f81b03191611155b15610b5857828181518110610b0e57610b0e611147565b602001015160f81c60f81b60f81c6020610b28919061115b565b60f81b828281518110610b3d57610b3d611147565b60200101906001600160f81b03191690815f1a905350610b9e565b828181518110610b6a57610b6a611147565b602001015160f81c60f81b828281518110610b8757610b87611147565b60200101906001600160f81b03191690815f1a9053505b80610ba88161101a565b915050610a96565b509392505050565b60405180606001604052805f8152602001606081526020015f6001600160a01b031681525090565b80356001600160a01b0381168114610374575f80fd5b5f60208284031215610c06575f80fd5b610c0f82610be0565b9392505050565b5f5b83811015610c30578181015183820152602001610c18565b50505f910152565b5f8151808452610c4f816020860160208601610c16565b601f01601f19169290920160200192915050565b60208152815160208201525f602083015160606040840152610c886080840182610c38565b604094909401516001600160a01b0316606093909301929092525090919050565b5f60208284031215610cb9575f80fd5b5035919050565b5f8083601f840112610cd0575f80fd5b50813567ffffffffffffffff811115610ce7575f80fd5b602083019150836020828501011115610cfe575f80fd5b9250929050565b5f805f8060608587031215610d18575f80fd5b84359350602085013567ffffffffffffffff811115610d35575f80fd5b610d4187828801610cc0565b9094509250610d54905060408601610be0565b905092959194509250565b5f805f60408486031215610d71575f80fd5b833567ffffffffffffffff811115610d87575f80fd5b610d9386828701610cc0565b9094509250610da6905060208501610be0565b90509250925092565b5f8060208385031215610dc0575f80fd5b823567ffffffffffffffff811115610dd6575f80fd5b610de285828601610cc0565b90969095509350505050565b602081525f610c0f6020830184610c38565b600181811c90821680610e1457607f821691505b602082108103610e3257634e487b7160e01b5f52602260045260245ffd5b50919050565b5f8251610e49818460208701610c16565b9190910192915050565b634e487b7160e01b5f52604160045260245ffd5b601f821115610eb0575f81815260208120601f850160051c81016020861015610e8d5750805b601f850160051c820191505b81811015610eac57828155600101610e99565b5050505b505050565b67ffffffffffffffff831115610ecd57610ecd610e53565b610ee183610edb8354610e00565b83610e67565b5f601f841160018114610f12575f8515610efb5750838201355b5f19600387901b1c1916600186901b178355610f6a565b5f83815260209020601f19861690835b82811015610f425786850135825560209485019460019092019101610f22565b5086821015610f5e575f1960f88860031b161c19848701351681555b505060018560011b0183555b5050505050565b604081525f808454610f8281610e00565b806040860152606060018084165f8114610fa35760018114610fbd57610feb565b60ff1985168884015283151560051b880183019550610feb565b895f526020805f205f5b86811015610fe25781548b8201870152908401908201610fc7565b8a018501975050505b505050506001600160a01b0385166020850152509050610c0f565b634e487b7160e01b5f52601160045260245ffd5b5f6001820161102b5761102b611006565b5060010190565b815167ffffffffffffffff81111561104c5761104c610e53565b6110608161105a8454610e00565b84610e67565b602080601f831160018114611093575f841561107c5750858301515b5f19600386901b1c1916600185901b178555610eac565b5f85815260208120601f198616915b828110156110c1578886015182559484019460019091019084016110a2565b50858210156110de57878501515f19600388901b60f8161c191681555b5050505050600190811b01905550565b60408152826040820152828460608301375f60608483018101919091526001600160a01b03929092166020820152601f909201601f191690910101919050565b8181038181111561114157611141611006565b92915050565b634e487b7160e01b5f52603260045260245ffd5b60ff81811683821601908111156111415761114161100656fea2646970667358221220bf374ddc4a87a4b9140f71e7bb83fd09d6365e5aa9b7b1b3058bf31b88ecd3c364736f6c63430008140033","linkReferences":{}},"methodIdentifiers":{"VERSION()":"ffa1ad74","agentExists(uint256)":"de99f157","getAgent(uint256)":"2de5aaf7","getAgentCount()":"91cab63e","newAgent(string,address)":"4750d0fa","resolveByAddress(address)":"0c638107","resolveByDomain(string)":"78ddad12","updateAgent(uint256,string,address)":"3bfbbad7"},"id":16}