{
  "_format": "hh-sol-artifact-1",
  "contractName": "EnterpriseFeeCollector",
  "sourceName": "contracts/communityFee/EnterpriseFeeCollector.sol",
  "abi": [
    {
      "inputs": [
        {
          "internalType": "address payable",
          "name": "newCollector",
          "type": "address"
        },
        {
          "internalType": "address",
          "name": "OwnerAddress",
          "type": "address"
        }
      ],
      "stateMutability": "nonpayable",
      "type": "constructor"
    },
    {
      "anonymous": false,
      "inputs": [
        {
          "indexed": true,
          "internalType": "address",
          "name": "previousOwner",
          "type": "address"
        },
        {
          "indexed": true,
          "internalType": "address",
          "name": "newOwner",
          "type": "address"
        }
      ],
      "name": "OwnershipTransferred",
      "type": "event"
    },
    {
      "stateMutability": "payable",
      "type": "fallback"
    },
    {
      "inputs": [
        {
          "internalType": "address",
          "name": "tokenAddress",
          "type": "address"
        },
        {
          "internalType": "uint256",
          "name": "amount",
          "type": "uint256"
        }
      ],
      "name": "calculateFee",
      "outputs": [
        {
          "internalType": "uint256",
          "name": "",
          "type": "uint256"
        }
      ],
      "stateMutability": "view",
      "type": "function"
    },
    {
      "inputs": [
        {
          "internalType": "address payable",
          "name": "newCollector",
          "type": "address"
        }
      ],
      "name": "changeCollector",
      "outputs": [],
      "stateMutability": "nonpayable",
      "type": "function"
    },
    {
      "inputs": [
        {
          "internalType": "address",
          "name": "tokenAddress",
          "type": "address"
        }
      ],
      "name": "getToken",
      "outputs": [
        {
          "components": [
            {
              "internalType": "bool",
              "name": "allowed",
              "type": "bool"
            },
            {
              "internalType": "uint256",
              "name": "minFee",
              "type": "uint256"
            },
            {
              "internalType": "uint256",
              "name": "maxFee",
              "type": "uint256"
            },
            {
              "internalType": "uint256",
              "name": "feePercentage",
              "type": "uint256"
            }
          ],
          "internalType": "struct EnterpriseFeeCollector.Token",
          "name": "",
          "type": "tuple"
        }
      ],
      "stateMutability": "view",
      "type": "function"
    },
    {
      "inputs": [
        {
          "internalType": "address",
          "name": "tokenAddress",
          "type": "address"
        }
      ],
      "name": "isTokenAllowed",
      "outputs": [
        {
          "internalType": "bool",
          "name": "",
          "type": "bool"
        }
      ],
      "stateMutability": "view",
      "type": "function"
    },
    {
      "inputs": [],
      "name": "owner",
      "outputs": [
        {
          "internalType": "address",
          "name": "",
          "type": "address"
        }
      ],
      "stateMutability": "view",
      "type": "function"
    },
    {
      "inputs": [],
      "name": "renounceOwnership",
      "outputs": [],
      "stateMutability": "nonpayable",
      "type": "function"
    },
    {
      "inputs": [
        {
          "internalType": "address",
          "name": "",
          "type": "address"
        }
      ],
      "name": "tokenList",
      "outputs": [
        {
          "internalType": "bool",
          "name": "allowed",
          "type": "bool"
        },
        {
          "internalType": "uint256",
          "name": "minFee",
          "type": "uint256"
        },
        {
          "internalType": "uint256",
          "name": "maxFee",
          "type": "uint256"
        },
        {
          "internalType": "uint256",
          "name": "feePercentage",
          "type": "uint256"
        }
      ],
      "stateMutability": "view",
      "type": "function"
    },
    {
      "inputs": [
        {
          "internalType": "address",
          "name": "newOwner",
          "type": "address"
        }
      ],
      "name": "transferOwnership",
      "outputs": [],
      "stateMutability": "nonpayable",
      "type": "function"
    },
    {
      "inputs": [
        {
          "internalType": "address",
          "name": "tokenAddress",
          "type": "address"
        },
        {
          "internalType": "uint256",
          "name": "minFee",
          "type": "uint256"
        },
        {
          "internalType": "uint256",
          "name": "maxFee",
          "type": "uint256"
        },
        {
          "internalType": "uint256",
          "name": "feePercentage",
          "type": "uint256"
        },
        {
          "internalType": "bool",
          "name": "allowed",
          "type": "bool"
        }
      ],
      "name": "updateToken",
      "outputs": [],
      "stateMutability": "nonpayable",
      "type": "function"
    },
    {
      "inputs": [],
      "name": "withdrawETH",
      "outputs": [],
      "stateMutability": "payable",
      "type": "function"
    },
    {
      "inputs": [
        {
          "internalType": "address",
          "name": "tokenAddress",
          "type": "address"
        }
      ],
      "name": "withdrawToken",
      "outputs": [],
      "stateMutability": "nonpayable",
      "type": "function"
    },
    {
      "stateMutability": "payable",
      "type": "receive"
    }
  ],
  "bytecode": "0x60806040523480156200001157600080fd5b50604051620010b4380380620010b4833981016040819052620000349162000259565b6200003f3362000116565b6001600160a01b038216158015906200006057506001600160a01b03811615155b620000e85760405162461bcd60e51b815260206004820152604760248201527f4f5046436f6d6d756e697479466565436f6c6c6563746f723a20636f6c6c656360448201527f746f722061646472657373206f72206f776e657220697320696e76616c6964206064820152666164647265737360c81b608482015260a4015b60405180910390fd5b600180546001600160a01b0319166001600160a01b0384161790556200010e8162000166565b505062000298565b600080546001600160a01b038381166001600160a01b0319831681178455604051919092169283917f8be0079c531659141344cd1fd0a4f28419497f9722a3daafe3b4186f6b6457e09190a35050565b62000170620001e5565b6001600160a01b038116620001d75760405162461bcd60e51b815260206004820152602660248201527f4f776e61626c653a206e6577206f776e657220697320746865207a65726f206160448201526564647265737360d01b6064820152608401620000df565b620001e28162000116565b50565b6000546001600160a01b03163314620002415760405162461bcd60e51b815260206004820181905260248201527f4f776e61626c653a2063616c6c6572206973206e6f7420746865206f776e65726044820152606401620000df565b565b6001600160a01b0381168114620001e257600080fd5b600080604083850312156200026d57600080fd5b82516200027a8162000243565b60208401519092506200028d8162000243565b809150509250929050565b610e0c80620002a86000396000f3fe60806040526004361061009a5760003560e01c8063894760691161006157806389476069146101c05780638b28ab1e146101e05780638da5cb5b1461020e578063e086e5ec14610236578063f2fde38b1461023e578063f9eaee0d1461025e57005b806359770438146100a357806364e9f35f14610101578063715018a61461016b5780637781127e14610180578063824fe944146101a057005b366100a157005b005b3480156100af57600080fd5b506100c36100be366004610bc8565b6102a7565b6040516100f8919081511515815260208083015190820152604080830151908201526060918201519181019190915260800190565b60405180910390f35b34801561010d57600080fd5b5061014961011c366004610bc8565b6002602081905260009182526040909120805460018201549282015460039092015460ff90911692919084565b60408051941515855260208501939093529183015260608201526080016100f8565b34801561017757600080fd5b506100a1610324565b34801561018c57600080fd5b506100a161019b366004610bc8565b610338565b3480156101ac57600080fd5b506100a16101bb366004610bf3565b6103d9565b3480156101cc57600080fd5b506100a16101db366004610bc8565b610590565b3480156101ec57600080fd5b506102006101fb366004610c49565b61063e565b6040519081526020016100f8565b34801561021a57600080fd5b506000546040516001600160a01b0390911681526020016100f8565b6100a161073e565b34801561024a57600080fd5b506100a1610259366004610bc8565b6107d8565b34801561026a57600080fd5b50610297610279366004610bc8565b6001600160a01b031660009081526002602052604090205460ff1690565b60405190151581526020016100f8565b6102d460405180608001604052806000151581526020016000815260200160008152602001600081525090565b506001600160a01b03166000908152600260208181526040928390208351608081018552815460ff1615158152600182015492810192909252918201549281019290925260030154606082015290565b61032c61084e565b61033660006108a8565b565b61034061084e565b6001600160a01b0381166103b75760405162461bcd60e51b815260206004820152603360248201527f4f5046436f6d6d756e697479466565436f6c6c6563746f723a20696e76616c696044820152726420636f6c6c6563746f72206164647265737360681b60648201526084015b60405180910390fd5b600180546001600160a01b0319166001600160a01b0392909216919091179055565b6103e161084e565b6001600160a01b0385166104075760405162461bcd60e51b81526004016103ae90610c75565b82841061047c5760405162461bcd60e51b815260206004820152603b60248201527f4f5046436f6d6d756e697479466565436f6c6c6563746f723a206d696e46656560448201527f2073686f756c64206265206c657373207468616e206d6178466565000000000060648201526084016103ae565b6000821180156104945750670de0b6b3a76400008211155b61052c5760405162461bcd60e51b815260206004820152605f60248201527f4f5046436f6d6d756e697479466565436f6c6c6563746f723a2066656550657260448201527f63656e746167652073686f756c642062652067726561746572207468616e203060648201527f20616e64206c657373207468616e206f7220657175616c20746f203165313800608482015260a4016103ae565b6040805160808101825291151582526020808301958652828201948552606083019384526001600160a01b03969096166000908152600296879052209051815460ff1916901515178155925160018401559051928201929092559051600390910155565b6001600160a01b0381166105b65760405162461bcd60e51b81526004016103ae90610c75565b6001546040516370a0823160e01b815230600482015261063b916001600160a01b0390811691908416906370a0823190602401602060405180830381865afa158015610606573d6000803e3d6000fd5b505050506040513d601f19601f8201168201806040525081019061062a9190610cd2565b6001600160a01b03841691906108f8565b50565b6001600160a01b0382166000908152600260205260408120600301548190156106a3576001600160a01b03841660009081526002602052604090206003015461069c90670de0b6b3a76400009061069690869061094f565b9061095b565b90506106a7565b5060005b6001600160a01b0384166000908152600260205260409020600101548110156106ed5750506001600160a01b038216600090815260026020526040902060010154610738565b6001600160a01b038416600090815260026020819052604090912001548111156107355750506001600160a01b03821660009081526002602081905260409091200154610738565b90505b92915050565b6001546040516000916001600160a01b03169047908381818185875af1925050503d806000811461078b576040519150601f19603f3d011682016040523d82523d6000602084013e610790565b606091505b505090508061063b5760405162461bcd60e51b81526020600482015260146024820152732330b4b632b2103a379039b2b7321022ba3432b960611b60448201526064016103ae565b6107e061084e565b6001600160a01b0381166108455760405162461bcd60e51b815260206004820152602660248201527f4f776e61626c653a206e6577206f776e657220697320746865207a65726f206160448201526564647265737360d01b60648201526084016103ae565b61063b816108a8565b6000546001600160a01b031633146103365760405162461bcd60e51b815260206004820181905260248201527f4f776e61626c653a2063616c6c6572206973206e6f7420746865206f776e657260448201526064016103ae565b600080546001600160a01b038381166001600160a01b0319831681178455604051919092169283917f8be0079c531659141344cd1fd0a4f28419497f9722a3daafe3b4186f6b6457e09190a35050565b604080516001600160a01b038416602482015260448082018490528251808303909101815260649091019091526020810180516001600160e01b031663a9059cbb60e01b17905261094a908490610967565b505050565b60006107358284610ceb565b60006107358284610d18565b60006109bc826040518060400160405280602081526020017f5361666545524332303a206c6f772d6c6576656c2063616c6c206661696c6564815250856001600160a01b0316610a399092919063ffffffff16565b80519091501561094a57808060200190518101906109da9190610d3a565b61094a5760405162461bcd60e51b815260206004820152602a60248201527f5361666545524332303a204552433230206f7065726174696f6e20646964206e6044820152691bdd081cdd58d8d9595960b21b60648201526084016103ae565b6060610a488484600085610a52565b90505b9392505050565b606082471015610ab35760405162461bcd60e51b815260206004820152602660248201527f416464726573733a20696e73756666696369656e742062616c616e636520666f6044820152651c8818d85b1b60d21b60648201526084016103ae565b843b610b015760405162461bcd60e51b815260206004820152601d60248201527f416464726573733a2063616c6c20746f206e6f6e2d636f6e747261637400000060448201526064016103ae565b600080866001600160a01b03168587604051610b1d9190610d87565b60006040518083038185875af1925050503d8060008114610b5a576040519150601f19603f3d011682016040523d82523d6000602084013e610b5f565b606091505b5091509150610b6f828286610b7a565b979650505050505050565b60608315610b89575081610a4b565b825115610b995782518084602001fd5b8160405162461bcd60e51b81526004016103ae9190610da3565b6001600160a01b038116811461063b57600080fd5b600060208284031215610bda57600080fd5b813561073581610bb3565b801515811461063b57600080fd5b600080600080600060a08688031215610c0b57600080fd5b8535610c1681610bb3565b94506020860135935060408601359250606086013591506080860135610c3b81610be5565b809150509295509295909350565b60008060408385031215610c5c57600080fd5b8235610c6781610bb3565b946020939093013593505050565b60208082526038908201527f4f5046436f6d6d756e697479466565436f6c6c6563746f723a20696e76616c6960408201527f6420746f6b656e20636f6e747261637420616464726573730000000000000000606082015260800190565b600060208284031215610ce457600080fd5b5051919050565b6000816000190483118215151615610d1357634e487b7160e01b600052601160045260246000fd5b500290565b600082610d3557634e487b7160e01b600052601260045260246000fd5b500490565b600060208284031215610d4c57600080fd5b815161073581610be5565b60005b83811015610d72578181015183820152602001610d5a565b83811115610d81576000848401525b50505050565b60008251610d99818460208701610d57565b9190910192915050565b6020815260008251806020840152610dc2816040850160208701610d57565b601f01601f1916919091016040019291505056fea2646970667358221220f57d9bfbb330e1150445950cddd83e255df503d82b561d84e0c5e50dc4ef7d9064736f6c634300080c0033",
  "linkReferences": {},
  "deployedLinkReferences": {}
}